:020000041000EA
:1000000000B5324B212058609868022188439860DF
:10001000D860186158612E4B002199600221596106
:100020000121F02299502B49196001219960352056
:1000300000F044F80222904214D00621196600F024
:1000400034F8196E01211966002018661A6600F04E
:100050002CF8196E196E196E052000F02FF8012189
:100060000842F9D1002199601B49196000215960AB
:100070001A491B48016001219960EB211966A021F2
:10008000196600F012F800219960164914480160C1
:100090000121996001BC002800D000471248134993
:1000A000086003C880F30888084703B5996A0420EC
:1000B0000142FBD001200142F8D103BD02B5186610
:1000C0001866FFF7F2FF186E186E02BD00000240BE
:1000D000000000180000070000035F00212200005C
:1000E000F4000018222000A00001001008ED00E03C
:1000F00000000000000000000000000074B24E7A12
:1001000000200420F7010010C3010010C5010010F9
:10011000C1010010C1010010C1010010C101001097
:10012000C1010010C1010010C1010010C701001081
:10013000C1010010C1010010C9010010CB01001065
:10014000CD010010CD010010CD010010CD01001037
:10015000CD010010CD010010CD010010CD01001027
:10016000CD010010CD010010CD010010CD01001017
:10017000CD010010CD010010CD010010CD01001007
:10018000CD010010CD010010CD010010CD010010F7
:10019000CD010010CD010010CD010010CD010010E7
:1001A000CD010010CD010010CD010010CD010010D7
:1001B000CD010010CD010010CD010010CD010010C7
:1001C00000BE00BE00BE00BE00BE00BEEFF3058054
:1001D000103800BEF2EB887118AB001040AB001075
:1001E0003802001090A31AE71E481F49086006C88D
:1001F00081F3088810471D480068002801D019487D
:10020000F3E70DA40ECC002902D000F012F8F9E7B4
:100210001749184A002000E001C19142FCD116495B
:100220008847164988471649884700BEFDE701C937
:1002300001C29A42FBD3704740AB0010C0000020BF
:10024000D019002050C40010000004200000042039
:1002500050C4001000100420001004200000000012
:10026000704700000000000008ED00E0000000D032
:10027000D01900206C2900200D6600102103001009
:1002800005660010F8B5C0460448054B10B583421A
:1002900003D0044B002B00D0984710BDD01900208C
:1002A000D01900200000000006480749091A8B10E9
:1002B000C90FC91810B5491003D0044B002B00D04A
:1002C000984710BDD0190020D01900200000000070
:1002D00010B5074C2378002B09D1FFF7D5FF054B4C
:1002E000002B02D0044800E000BF0123237010BDA2
:1002F000581D002000000000549F0010054B10B551
:10030000002B03D00449054800E000BFFFF7CCFFF5
:1003100010BDC046000000005C1D0020549F00106E
:10032000F0B5D64646464F46C0B5B2B006F0B0FA74
:100330005B495C4809F070F80121122001F0C4FC0F
:100340000121132001F0C0FC0121102001F0BCFCB0
:10035000112001F03BFDD02380221B0692025A623D
:1003600012AC5A61504802F0B7FC40220021200034
:1003700004F03EFE012305934C4B04940293122398
:100380000EAC0193023306220021494803940093E6
:10039000073301F0C5F9474800F09CF8804646480D
:1003A00006F0C6FA00F08CF9444B0F989C46604466
:1003B00000F00CFE109800F041FD0E9800F08CFB50
:1003C000119800F063FC012002F086FC00F0F2F9C5
:1003D0003B4806F0ADFA3B4B01249A463A4B3B4D65
:1003E00099463B4E04E000281ED0012002F074FC28
:1003F00000F05EFB012815D00228F4D102F016FDB2
:100400000C00070022A907A800F040FA0799089AF3
:10041000099B019422A8009700F0BCFA012400F087
:10042000C9F9E2E70024E0E7002C03D1FA2002F04A
:1004300053FCDAE701220E210AA800F0D9F853464E
:1004400042461978280000F0FDF828000E220AA97B
:100450000A3004F0D3FD2B6848461BBA33606B6842
:100460001BBA7360AB681BBAB360EB681BBAF3606E
:100470002B691BBA33616B691BBA736106F058FABA
:100480000623320000210A4801F0CCFA042002F0D1
:1004900023FC534652461B7801331370C6E7C0460F
:1004A000404B4C0000C0034088130000A0860100B0
:1004B00000002050C4090000589F001080080892D6
:1004C0009C9F001068290020B09F0010F428002095
:1004D0004C240020034B984201D003487047034846
:1004E000FCE7C046C4090000801000208C100020EA
:1004F000304AF8B51388002B0CD1022313802E4B01
:100500002E4A2F4C2F4D1A602000290003F048FB83
:1005100080B2F8BD2C4C2849A44608682B4E023303
:10052000704360444643664413800E6003F0F8FA5B
:10053000274A284B03F06BFA03F076FBC023002216
:100540001B0603F082FA03F043FB040030000D00A9
:1005500003F0E6FA1E4A1F4B03F059FA1E4A1F4BDE
:1005600003F073FA03F04AFB06000F00002220009C
:1005700029001B4B03F069FA32003B0003F065FAD7
:100580000022184B03F03AFA8022174B120604009F
:100590000D0003F0B3FA002801D01448B9E7002396
:1005A00000222000290003F093FA03000020002B12
:1005B000AFD1A9E75E29002098100020873F57851A
:1005C00022D100EF6B5DB3405FF36E3C0D66190006
:1005D0000000E0FFFFFFEF41182D4454FB211940BC
:1005E00000FC9F4000FFBF40FFFF4F41FFFF0000A6
:1005F000F8B501231C0005000E0017000C400B424B
:1006000015D1002A10D002240C4A13881B0A2B7023
:1006100013886B70A64209D9FFF76AFF030A2B55AE
:100620002B1902345870E4B2A642F5D8F8BD04483C
:1006300006F008FA002FE6D10024EDE75E2900203D
:10064000F09F0010030013439B070BD1531CC31AE8
:10065000022B07D913680360536843600F230372AA
:1006600041727047137803705378437093788370A6
:10067000D378C3701379037153794371937983717C
:10068000D379C371EAE7C04600B583B0152801D01D
:1006900003B000BD042909D00829F9D16B46D91D42
:1006A000012306480B7002F0EDFBF1E76B46D91D04
:1006B000022302480B7002F0E5FBE9E7D424002096
:1006C000302370B582B001AD2B70C046C046C04625
:1006D000D02480262406B602A661C046C046C04685
:1006E000012229002F4809F0E3FBC046C046C0465E
:1006F0006661C046C046C046012002F0EDFA6420A3
:10070000002102F0D7FA36232B70C046C046C046FF
:10071000A661C046C046C04601222900214809F012
:10072000C7FBC046C046C0466661C046C046C0461C
:10073000012002F0D1FAC046C046C046A661C046BC
:10074000C046C046184C26002836238802222900BD
:10075000144802342B8009F0ABFBB442F5D1C046FB
:10076000C046C046D02380221B0692025A61C04672
:10077000C046C04601F0EEFB0C4C030014220121E0
:10078000200002F06DFB0021200002F0B3FB0028E6
:10079000F9D101220C21064B153001F0AFFA02B05D
:1007A00070BDC04600C003409C100020D42400202F
:1007B000890600103623F0B583B001AE3370C04611
:1007C000C046C046D02480252406AD02A561C0469F
:1007D000C046C0462C4F01223100380009F068FBAA
:1007E000C046C046C0466561C046C046C0460120FE
:1007F00002F072FA17233380C046C046C046A56196
:10080000C046C046C04602223100380009F050FB05
:10081000C046C046C0466561C046C046C0460120CD
:1008200002F05AFA3A233370C046C046C046A5616A
:10083000C046C046C04601223100380009F038FBEE
:10084000C046C046C0466561C046C046C04601209D
:1008500002F042FA34233370C046C046C046A56158
:10086000C046C046C04601223100380009F020FBD6
:10087000C046C046C0466561C046C046C04601206D
:1008800002F02AFA03B0F0BD00C00340F0B5DE4626
:1008900057464E4645460023E0B585B004009B46CA
:1008A0009A4699460091C046C046C046D02780234C
:1008B0003F069B029846BB61C046C046C04603AD9A
:1008C00002232A00FB21324809F0B2FAC046C04692
:1008D000C04643467B61C046C046C04601236A7895
:1008E000EB56D609002B10DA5B466370019B2000A3
:1008F0006360534623724B462670637205B0F0BCAA
:10090000BB46B246A946A046F0BD023AD3B29B46CA
:10091000C046C046C0464346BB61C046C046C0460E
:1009200001232A00FF211A4809F082FA5A465B4641
:100930003E2A25D8009AFF21DBB2154809F078FA43
:1009400002232A00FF21124809F072FAC046C0466D
:10095000C046D02380221B0692025A61C046C04680
:10096000C0466B78DA0992467F221A4091460022EF
:10097000AA562B78002A05DB5B08463B0193B3E7B8
:100980003E23D7E7FF3B5B10463B0193ACE7C046F5
:1009900000C00340F0B5D6464F464646C0B586B0C7
:1009A0000C0A03910492059305000E980F990023F9
:1009B000354A02F011FE91469846484641460023CA
:1009C000324A02F009FE17001E00314A00233800A7
:1009D000310002F001FE00238246414648462B4A80
:1009E00002F0FAFD002381460E980F99264A02F084
:1009F000F3FD0023804631003800254A02F0ECFD6B
:100A00001000FA2219009200002302F0E5FD53467F
:100A100000904A4641461F4806F014F86B461B7B7F
:100A2000E4B2002B2BD1261C402C26D8F6B2002C89
:100A300009D00024184F295D3800013406F002F86F
:100A4000E3B2B342F7D3154805F0FCFF049B14480A
:100A50001900029305F0F6FF6B461B7D002B08D1B1
:100A6000104805F065FF06B0E0BCBA46B146A8469E
:100A7000F0BD0D4805F05CFFF5E74026D6E70B48D2
:100A800005F056FFEFE7C04600A493D60087930316
:100A900040420F002CA0001084A0001040A00010C5
:100AA0008CA0001078A0001090A0001044A00010AE
:100AB00000B583B06A4600230648D11DD37102F009
:100AC00019FA0023002801D06B46DB79180003B027
:100AD00000BDC046D4240020F0B54646D6464F4659
:100AE0003623C0B584B003AC06002370C046C046B0
:100AF000C046D02580232D069B029846AB61C04698
:100B0000C046C046584B012221001800994609F002
:100B1000CFF9C046C046C04643466B61C046C0469A
:100B2000C046012002F0D8F8300002F0F9FF0022A0
:100B30004E4B06000F0002F088FF00224C4B02F0E3
:100B400066FF03F071F84B4A4B4B02F060FF03F075
:100B500017F903F025F8C3B2012098409A4602F035
:100B6000E3FF002200900191444B3000390002F075
:100B70006CFF002206000F00009801993C4B02F028
:100B800064FF02000B003000390002F040FF002239
:100B90003B4B02F02AFF03F0F3F803F001F8C6B272
:100BA000300002F0C1FF0022354B02F027FF009A0F
:100BB000019B02F04AFF00222D4B02F046FF00226B
:100BC000304B02F042FF03F0DBF802F0E9FF3200A5
:100BD000030051462C4805F035FF00232380C04612
:100BE000C046C0464346AB61C046C046C04602232D
:100BF00022009021484609F01BF9C046C046C04675
:100C000043466B61C046C046C046012002F064F80E
:100C10006078C046C046C0464346AB61C046C04649
:100C2000C046102352462370013B9843134018439B
:100C3000210060700222484609F03AF9112302228D
:100C4000210048462370667009F032F9C046C0465C
:100C5000C04643466B61C046C046C04604B0E0BCD7
:100C6000BA46B146A846F0BD00C00340000030417E
:100C7000A8CB7841EF39FAFE422EE63F0000B041A2
:100C8000000070400000303E9CA00010F0B54646C9
:100C9000D6464F463623C0B584B003AC0600237059
:100CA000C046C046C046D02580232D069B029846EC
:100CB000AB61C046C046C046584B01222100180017
:100CC000994609F0F5F8C046C046C04643466B61F8
:100CD000C046C046C046012001F0FEFF300002F0D1
:100CE0001FFF00224E4B06000F0002F0AEFE020076
:100CF0000B0000204B4902F08AFE02F095FF4A4AA1
:100D00004A4B02F084FE03F03BF802F049FFC3B205
:100D1000012098409A4602F007FF002200900191BE
:100D2000434B3000390002F090FE009A019B02F024
:100D30008CFE02000B0000203A4902F068FE0022FF
:100D40003C4B02F052FE03F01BF802F029FFC6B242
:100D5000300002F0E9FE0022364B02F04FFE002286
:100D6000334B02F072FE009A019B02F06EFE02000D
:100D70000B0000202B4902F04AFE03F001F802F0BC
:100D80000FFF3200030051462B4805F05BFE0023A5
:100D90002380C046C046C0464346AB61C046C046FD
:100DA000C046022322009021484609F041F8C0467F
:100DB000C046C04643466B61C046C046C04601209F
:100DC00001F08AFF10232370534698010F236278A5
:100DD00036011340C01830231E4086196670C04685
:100DE000C046C0464346AB61C046C046C04602222C
:100DF0002100484609F05CF8C046C046C04643465C
:100E00006B61C046C046C046012001F065FF04B0DA
:100E1000E0BCBA46B146A846F0BDC04600C003409B
:100E200000004040A8CB7841EF39FAFE422EE63F61
:100E30000000204000001040B8A00010F0B545466A
:100E4000DE4657464E463623E0B585B003AC050076
:100E50002370C046C046C046D0231B069846802358
:100E60009B02994643464A469A61C046C046C046E0
:100E70004D4B0122210018009A4609F019F8C0468E
:100E8000C046C04643464A465A61C046C046C04670
:100E9000012001F021FF280002F042FE0022434B16
:100EA00006000F0002F0D1FD0022414B02F0AFFD21
:100EB00002F0BAFE3F4A404B02F0A9FD02F060FF8B
:100EC00002F06EFEC3B2012098409B4602F02CFE59
:100ED000822300900191002230003900DB0502F0EE
:100EE000B4FD002206000F0000980199304B02F07B
:100EF000ACFD02000B003000390002F088FD00223A
:100F00002E4B02F072FD02F03BFF02F049FEC5B22B
:100F1000280002F005FE0022284B02F06FFD00229F
:100F2000274B02F06BFD0022214B02F08EFD009A50
:100F3000019B02F08AFD0022224B02F086FD02F0A6
:100F40001FFF02F02DFE2A00030059461E4805F03F
:100F500079FD152323705B4670201B011840072381
:100F60001D4005436570C046C046C04643464A46DC
:100F70009A61C046C046C04602222100504608F091
:100F800097FFC046C046C04643464A465A61C046DF
:100F9000C046C046012001F09FFE05B0F0BCBB4634
:100FA000B246A946A046F0BD00C003400000D040B4
:100FB000A8CB7841EF39FAFE422EE63F00002040F0
:100FC0000000F03F0000E03ED0A00010F0B5CE469B
:100FD0004746362380B589B005AC05002370C0466E
:100FE000C046C046D0231B06984680239B029946E4
:100FF00043464A469A61C046C046C0460122210087
:101000005B4808F055FFC046C046C04643464A46C6
:101010005A61C046C046C046012001F05DFE28006E
:1010200002F07EFD0022534B02F00FFD0022524BD6
:1010300002F0EDFC06000F0002F0A2FE02F0B0FD8F
:10104000050002F06DFD0290039102000B003000DC
:10105000390002F0CAFC0022484B02F0C6FC002214
:10106000474B02F0F2FC02F08BFE02F099FDC6B293
:10107000701CFF3002F058FD0022002302F0E5FC56
:101080000022404B02F0E1FC029A039B02F0B6FC06
:101090000022394B02F0D9FC00223B4B02F0D5FC78
:1010A00002F06EFE02F07CFD002301900022290078
:1010B0000096364805F0C6FC00232380C046C04693
:1010C000C04643464A469A61C046C046C0460223CF
:1010D00022009321264808F0ABFEC046C046C04619
:1010E00043464A465A61C046C046C046012001F008
:1010F000F3FD0A2222700022637862700D22A27032
:101100006A02520EE2700E2222712A0A62710F22C6
:101110009343132163721423A271E5712172A372A8
:10112000E672C046C046C04643464A469A61C0463B
:10113000C046C04608AF04AE2378022233706378FD
:1011400031000B487370023408F0B2FEA742F3D1AD
:10115000C046C046C046D02380221B0692025A6178
:10116000C046C046C04609B0C0BCB946B046F0BD96
:1011700000C003400000F040A8CB78410000504080
:10118000000010400000D03F0000F03EECA0001036
:10119000F0B557464546DE464E46E0B58DB01D00DB
:1011A00016AB0F00110004CB82461B780B92002B6C
:1011B00000D1A2E2F0231B029946E24B0824984694
:1011C000E14802F0CBF9061F7B083900300000939C
:1011D00002F0C4F9009B0AB205920193934200DD2C
:1011E00001926B4604229A5E534651465B083000DA
:1011F0001F000392049302F0B1F90AB20892029719
:10120000974200DD02926B46009F210038000826BD
:101210009E5F02F0A3F989B2002900D066E22100A6
:10122000380002F09BF9C0B20630C3B29A46009B68
:101230002100013B9BB218001F00069302F08EF9BB
:1012400089B2002900D04AE22100380002F086F974
:10125000C0B25044C3B29A466B469B882100180026
:101260009B4602F07BF989B2002900D030E22100D0
:10127000584602F073F9C0B25044C3B29A46019A7C
:10128000059B21009A1AD343DB171A4093B218002A
:101290009B46099202F062F989B2002900D010E25F
:1012A0002100584602F05AF9C0B25044C0B2831C23
:1012B000049FDBB203300A932100C3B238000593C8
:1012C00002F04CF989B2002900D0F3E12100380086
:1012D00002F044F9C0B2059B21009B46049B834465
:1012E000013B9BB218001F00079302F037F989B247
:1012F000002900D0D7E12100380002F02FF9C0B258
:101300005844431C9A466B461B89210018009B4693
:1013100002F024F989B2002900D0BDE1210058462D
:1013200002F01CF9C0B203005344029A1F00089B4C
:1013300021009B1A9B46DB435A46DB171A4093B2A7
:10134000180093469A4602F009F989B2002900D0A4
:1013500092E12100504602F001F9BC46C0B260445F
:101360001E2800DD93E143462B80784B0A9A6B8060
:10137000774BAB80774BEB801F2313402022134326
:101380002B81009A744B6B8113B2002A00D1BBE110
:10139000621E12B29446039A604692464246AC469A
:1013A000B04606212500160000901A00AB4200DD71
:1013B0002A00013AD2B21000009F013B3840674634
:1013C0009B1A00024C000A00304301311BB2E0536B
:1013D000C9B2002BE9DC53460393330046469846D6
:1013E0004B002C0065469C46931CDBB2580082469D
:1013F0000332D2B2520068461827C05F002831DDA0
:10140000631E1BB29A464B46B146039E5246AC46FB
:10141000B24625001E0000920300A84200DD2B000A
:10142000013BDBB21A00009F01383A4067461202C6
:101430004C003243C01AE25300B20A000131C9B273
:101440000028E9DC5346039333004E4699464B008F
:101450002C0065469C46931CDBB259008A46033239
:10146000D2B252004621604629520199002926DD58
:10147000621E12B294462A00E24645469446B046A1
:10148000039F3A00A74200DD2200013AD2B21100C8
:10149000564631406646013FBF1A090258001A00FD
:1014A000294301333FB28153DBB2002FE9DC5900FD
:1014B00046468A46A84665460232D2B2520069467E
:1014C0002420095E002925DD621E12B294462A00FE
:1014D000E2464D469446B1460A00A14200DD220094
:1014E000013AD2B210005646304066460139891A98
:1014F00000025F001A002843013309B2B853DBB27F
:101500000029E9DC59004E468A46A9466546023262
:10151000D2B2520003215046295210490233A95237
:101520000499DBB20AB200292ED0611E09B28C46A2
:101530002900E24645468C46B0461100A2420FDD26
:1015400021000DE001F8000040597307C060000061
:10155000406000002160000022A0FFFF26A0FFFFE6
:101560000139C9B25646080030406646013A0002C9
:10157000521A5F002843013312B2B853DBB2002A7B
:10158000DBDC4646A84665466A461C21525E002AB8
:101590001FDD611E09B28C462900E2464D468C468D
:1015A000B1461100A24200DD21000139C9B2564600
:1015B000080030406646013A0002521A5F00284394
:1015C000013312B2B853DBB2002AEADC4E46A94618
:1015D00065461F22059859000240402002434A53A5
:1015E000029A0133DBB2002A17DD671E3FB23200D8
:1015F000A64200DD2200013A5900D2B28C46110009
:1016000040463940090201436046013EB61A0133A3
:1016100036B24153DBB2002EE9DC5A4611B2002942
:1016200019DD661E36B24F46B0460A00A14200DD03
:101630002200013A5800D2B284464646100030409B
:10164000664601390002891A3843013309B27053E2
:10165000DBB20029E9DC03215A0051530B9A013314
:101660001371FF230120156053710DB0F0BCBB4610
:10167000B246A946A046F0BD2100504601F06EFFDB
:10168000BC460130C0B260441E2800DC6BE6224834
:1016900005F0D8F90020E8E72100584601F05EFF88
:1016A0000130C0B23FE63800210001F057FF0130A1
:1016B000C0B225E63800210001F050FF0130C0B271
:1016C00009E62100584601F049FF0130C0B2ECE5BF
:1016D0002100584601F042FF0130C0B2CCE538008D
:1016E000210001F03BFF0130C0B2B2E5380021001B
:1016F00001F034FF0130C0B296E5E0231B029946A9
:10170000064B202498465BE50E230C219A468C4616
:101710001022073B06396EE610A1001001E0000020
:10172000F0B54E464546DE46574693460122E0B5A3
:101730000D00110091B004931AAB1B88A940994683
:101740001BAB1F881C9B040098461FAB1B781D9E7B
:101750000393036805918B4303604B461A4200D004
:1017600031E1FB0700D52AE14146A04801F0F6FE31
:10177000002900D005E1039B06AA390001930092DD
:101780001E9B42464846FFF703FD002206A92000A3
:1017900007F046FD964A5846A3181B0D0633DAB2E9
:1017A0001100924600F090FA0122012300922900D4
:1017B0005A46200007F088FD039B002B00D09CE0D8
:1017C0000B938022F82352025B0208920993C023F4
:1017D0001B030A930CAB9A461022180008A903F0C9
:1017E0000DFC524604AB1B7B013B1B0353605B4665
:1017F0005A01F8239B001A408023DB041A43534606
:10180000DA6052467B4B2900936020005346002249
:1018100007F0B8FD2368059A41461A4322607348D1
:1018200001F09CFE031F494618009B4601F096FEFE
:101830003900431E58469A4601F090FE2A000123C3
:1018400010329340013862681342FCD15246AD0019
:1018500065192A6162681342FCD1286149466348D0
:1018600001F054FE39000400604801F04FFE2418D6
:10187000631038009A4602F053F902000B00002072
:101880005D4902F0C4F8040050460D0002F048F92A
:1018900002000B002000290002F0A7F802F020FA55
:1018A00005000C00002200232800210002F026F988
:1018B00000285ED02100280002F072F9040043469F
:1018C00033605346736063004344F3604B4BB46032
:1018D0009C4200D97FE0B94500D278E0F068B36857
:1018E000726831680090464805F0ACF811B0F0BC61
:1018F000BB46B246A946A046F0BD049B51469A4657
:10190000180000F0E1F9012352462900009320005D
:10191000049207F0D9FC002380220B93F823520293
:101920005B0208920993C0231B030A930CAB10229D
:10193000180008A99A4603F061FB04AB1B7B314AEF
:10194000013B1B03134080225146D2051343F8226A
:101950004B60049BD2019B021340F8215A46890038
:1019600052010A4013438822D20513435246D360E2
:1019700047E780231B06E118280002F011F9040054
:101980009DE7404602F0CCF802000B0000201A4907
:1019900002F03DF802F0A4F902000B000020164905
:1019A00002F035F802F09CF902F0FAF882460300E2
:1019B00041467D22144805F045F8D046DBE6134841
:1019C00005F040F8D0E6124805F03CF8C9E61148A9
:1019D00004F0AEFF82E7104804F0AAFF0F4B9C42D0
:1019E00000D878E70E4804F0A3FF74E74059730766
:1019F0000000E0AF0000064065CD9D4160CC0500D1
:101A00003CA40010FFFFFF9F00A3001098A200104D
:101A100030A20010F4A300108CA3001040420F006D
:101A2000C0A3001070B50E001100002B0FD03400C1
:101A300001221034A2409D0004364D19B6000C68F6
:101A400043681A42FCD104313450A942F7D1012035
:101A500001F042F970BDC046D0231B061B68F0B5EB
:101A60009A00454690464146934ADE4652585746AC
:101A700093465A1E934130224E465B421A40130051
:101A80008E4AE0B5944683B0634401938C4B08269C
:101A90009A463500083DEA081300019908339B0077
:101AA0005C58002C27D05B46002B2ED001230F273B
:101AB000994639002140274217D0524640462B0014
:101AC0001258203BEA40DB1713404A4613420CD120
:101AD000072208002A40920090400200EB08794853
:101AE0003C339B001A502800D84724090135002CAC
:101AF00001D0B542DDD30836282ECAD103B0F0BCE0
:101B0000BB46B246A946A046F0BD0F2318002040B0
:101B1000234209D041466A4B59583300E940283BDB
:101B2000DB0F0B4200D197E02309F11F002BE2D01D
:101B30000F22100018401A4211D04246604B9A58AA
:101B40003300CA40273BDB0F134208D10722CB08E2
:101B50001140890088405B4A3C339B009850230A1F
:101B6000B11F002BC7D00F22100018401A4211D00D
:101B70004246534B9A583300CA40263BDB0F134270
:101B800008D10722CB081140890088404D4A3C33D8
:101B90009B009850230B711F002BACD00F2210001C
:101BA00018401A4245D1230C311F002BA3D00F221D
:101BB000100018401A4258D1230DF11E002B9AD064
:101BC0000F22100018401A4262D1230EB11E002BC2
:101BD00091D00F22100018401A4211D04246384BC3
:101BE0009A583300CA40223BDB0F134208D1072228
:101BF000CB08114089008840324A3C339B00985002
:101C0000240F711E002C00D175E7534642469A58A6
:101C10003300CA40213BDB0F134200D06BE70722A1
:101C2000CB08114089008C40264A3C339B009C50D5
:101C300061E74246224B9A583300CA40253BDB0FEE
:101C40001342B0D10722CB081140890088401D4AB9
:101C50003C339B009850A6E707231D40AD00A840E9
:101C6000184B3C329200D0505EE74246144B9A58D3
:101C70003300CA40243BDB0F13429DD10722CB081F
:101C80001140890088400F4A3C339B00985093E7ED
:101C900042460B4B9A583300CA40233BDB0F13429A
:101CA00093D10722CB08114089008840054A3C3374
:101CB0009B00985089E7C046642400200041014001
:101CC0002C2900200040014010B54024084A830020
:101CD0009A181268C0005440C0222240054CA44605
:101CE00063441A60044B9C466044416010BDC0468A
:101CF00004C0014004D0014000400140F8B5454611
:101D00009846D0231B06DE461C689B462B4B574645
:101D10009A46A3004E469946E0B5534616004A46F9
:101D20009B5807000D00002B34D04346002B3FD0BA
:101D300053464A4641469950D0231B061C6807204B
:101D40001F4A631E9C419446FA0811003023384014
:101D50008000854064421B4823403C316344890035
:101D600092000D509B18002E0ED0802292019446B6
:101D7000634401210D201D6000F028F9F0BCBB4632
:101D8000B246A946A046F8BDC022920194466344DB
:101D90001D60F3E74346002BD1D0534641460D204A
:101DA00099500022084900F073F95B461C68C6E7A9
:101DB0000D20054900F060FABAE7C046642400200F
:101DC0000041014000400140591A00100123D02277
:101DD00083404021120693629361094A83009A1856
:101DE0001268C0005140C0220A4006498C46634434
:101DF0001A60054B9C460523604443607047C0460B
:101E000004C0014004D00140004001408023DB05B4
:101E10001868000F7047C0460FB400B5084883B07B
:101E200004F086FD049B002B07D005A91800019142
:101E300004F0B4FB034804F07BFD012004F0C6FB72
:101E4000A0A40010E8A00010EFF3108072B6034ABF
:101E50001368002BFCD0BFF35F8F70472C0100D0BC
:101E6000BFF35F8F0022024B1A6080F31088704727
:101E70002C0100D070B5EFF3108C72B60D4D2B68AD
:101E8000002BFCD0BFF35F8F0724CB08C618C05CC3
:101E900001230C40A3401C000440034207D103432C
:101EA0003370BFF35F8F2C608CF3108870BD10000F
:101EB000FFF7B2FF2C0100D0F8B54746CE46884662
:101EC00080B5EFF3108C72B6214D2C68002CFCD03D
:101ED000BFF35F8F9A422CD8D4080727055D0619F7
:101EE00001241740BC402C421FD0072101278946FE
:101EF00009E0D408055D06194C4639001440A1409C
:101F00000C00294211D001329342F2D2012040420A
:101F1000BFF35F8F00220E4B1A608CF310880028ED
:101F20000FDBC0BCB946B046F8BD2C43100034707E
:101F3000EEE7BFF35F8F00232B608CF31088012046
:101F400040424346002BECD00898FFF765FFC0469F
:101F50002C0100D0044A1078431CDBB2172B00D9A7
:101F6000102313707047C046C410002000B5054B05
:101F700083B00100009318221F230348FFF79CFF42
:101F800003B000BDB0A40010742400200021044B55
:101F9000044ABFF35F8F02C39342FAD17047C04631
:101FA000000100D0800100D0054B064A1360064AAC
:101FB000136053609360D360136153619361704702
:101FC0008080808000E400E004E400E01F231840EB
:101FD0001E3B8340002905D0C021044A49005350CC
:101FE00013607047802201498B50FAE700E100E05E
:101FF00001228240034B1B6813405A1E9341D8B202
:102000007047C04600E100E001238340014A1360AD
:102010007047C04600E200E0064B10309B6880002D
:10202000C358054A00209B1A2F229A424041C0B251
:102030007047C04600ED00E0C810002070B50D00EC
:10204000EFF3108672B60F4A1368002BFCD0BFF373
:102050005F8F0D4B10309B6884001B590B4A9342D5
:1020600003D09D4201D001F073F9074B9B681D51CD
:10207000BFF35F8FBFF35F8F0022024B1A6086F3BE
:10208000108870BD240100D000ED00E0CD010010EB
:10209000F0B557464E46DE464546E0B585B00600EB
:1020A00002911700EFF3108B72B6674A1368002B8A
:1020B000FCD0BFF35F8F0025644B5D579A46002D1F
:1020C00000DAA4E06B00624C03935B199B00984616
:1020D000A146C1444B4652469B79103613705D4B66
:1020E000B2009B68019299580B1B2F2B34D95A4B85
:1020F000994200D0A4E0039B584A9C46584B654443
:10210000AD006353434602336519E418554B012172
:10211000043B1B1B1B055B0D13436B80524BEF7184
:10212000AB80FF23AB71029BAB604B460B431900A6
:10213000484B019A9B689950BFF35F8FBFF35F8F45
:102140000022414B1A608BF3108805B0F0BCBB46EF
:10215000B246A946A046F0BD01200A008243D379C9
:10216000BB422FD845464E46130040491B1B5B41DE
:102170005943090D3A4B63533A4B02356519043BF9
:102180005B1B1B05354D5B0D2B4373800426B4464A
:10219000E0444444131F1B1B4C46A17102991B05CC
:1021A000A16049465B0D2B43A380314BE77101438E
:1021B0001360BDE75800C01880002018C679BE42E1
:1021C0002BD902000623D356002BF3DA101D8246CA
:1021D0002848804604267642B446E14450464E469E
:1021E000361A3005400D824656461C489571064306
:1021F0009680039A944665441D4AAD006419226096
:102200004246A371029BA280E771A36090E701F0B0
:102210009FF8002553465D5754E7101D824690886D
:102220004005001584464046D444664604302018D4
:10223000301AE0260005400D360230438046C9E7DB
:1022400001F086F857E7C046240100D06429002039
:10225000C810002000ED00E0CD01001000E0FFFFFD
:1022600000A1FFFFF810002001BDFFFFAAAA000097
:102270000148804701BD0000F0B5DE4657464E4696
:102280004546E0B50C0083B0EFF3108972B65F4AA3
:102290001368002BFCD0BFF35F8F5D4B9A6803007F
:1022A00010339F00D5595B4A904695423DD0A542D8
:1022B0004ED0594EAA1B2F2A37D8584A9346126837
:1022C0009446012261469246824011401F221040EE
:1022D0005246824092460191802251465846815092
:1022E000BFF35F8FEFF305829346002A32D10123BB
:1022F0002A009A439068844208D17CE04B005B1826
:102300009B00F318986884422ED01A00062151567B
:102310000029F3DA84424DD0019B002B1FD0C0224C
:1023200051463E4B520099501960394B9B68DD5124
:10233000BFF35F8FBFF35F8F0022344B1A6089F3C6
:10234000108803B0F0BCBB46B246A946A046F0BD1B
:102350001500EAE79342CAD000F0FAFFC7E78023EE
:1023600051462E4AD150E0E706215956002922DB7A
:102370004A005018800034188046A0689860E079C0
:10238000D871062020569871002825DBA488F01A01
:102390006405241544440019E0240005400D24027E
:1023A0002043988052181E4B9200B6181A78197064
:1023B000B271B1E71300594600290FD1FF31917175
:1023C0001849918016490A789A71174A9B1B5B41FC
:1023D0005A43120D0A709FE71448E2E7144A154960
:1023E000D21A083A5002400D01439980124952080E
:1023F0000A43DA8090E70621515613000029B7DA24
:102400005A46002AEAD14546DCE7C046240100D0FE
:1024100000ED00E0CD010010C810002000E100E058
:102420006429002001BDFFFFAAAA000001BD000031
:102430000211002000F0FFFF00F8FFFF70B501243B
:102440000443EFF30581EFF3108C72B6214A136851
:10245000002BFCD0BFF35F8F1F4B05001F4AED1A06
:102460006D416A43120D1E4D8900AE6852B2765816
:10247000A6421CD00621595691421CD01221595611
:10248000914222D01E215956914220D02A215956DC
:102490000324914210D0134B19781A708171BFF345
:1024A0005F8F00220B4B1A608CF3108870BDAB68F5
:1024B0000D4C5C50EFE700246100091989005B189E
:1024C000FF21997109499980E5E70124F4E7022485
:1024D000F2E7C046240100D0C8100020AAAA0000DC
:1024E00000ED00E064290020CD01001001BDFFFFD8
:1024F00000B5074B83B00100009300220523054877
:10250000FFF7DAFC002801DB1F23181A03B000BD17
:10251000CCA4001069290020024B9C46614489002C
:102520000160704740000034F8B5134D134E2C0085
:10253000FF27B5421ED22368002B0FD0FFF70AFDFC
:1025400001002800FFF7E8FFA780BFF35F8F083482
:10255000B4420FD223682500002BEFD1FFF7FAFC1D
:1025600001002800FFF7D8FF2771BFF35F8F083401
:10257000B442EFD3F8BDC046C8190020D0190020DE
:1025800010B50400FFF7E6FC01002000FFF7C4FFD0
:10259000FF232371BFF35F8F10BDC04610B5040049
:1025A0000120FFF7E3FC044B9C4660448000206060
:1025B000BFF35F8F10BDC04640000034034B9C4604
:1025C000614489000160BFF35F8F704740000034B1
:1025D0000A4B1968EFF3108072B60A68002AFCD023
:1025E000BFF35F8F1B68BFF35F8F00221A6080F319
:1025F000108840BF002000217047C04640290020BD
:10260000F0B5DE4657464E464546E0B585B0EFF399
:102610000582032313409A0011000392B64A5258D0
:10262000904601229A409146B44B1A604B46B448FA
:102630004363434608229B5E9A46002B3DDA43469D
:102640009B881BB2002B00DBA1E043469B79002B4B
:1026500000D0F3E0434608241C5F002C23DB4246F5
:102660005269630094461B19DB0063449C68DD6873
:10267000631C00D10FE1A248039984466144826A39
:102680000B69A61A9B1A9E4215D34A46036A1A4240
:1026900011D09B4800F0C2FB241A8D41002D02DCB2
:1026A000C4D1002CC2D040BF05B0F0BCBB46B2467E
:1026B000A946A046F0BD0C61EBE7424652695B00BB
:1026C00093465344DB009B445B469E68DF6800F002
:1026D000A5FB801BB9410029B1DB002F00DAE5E042
:1026E0005B46884A1B69934200D1D8E041465A466E
:1026F0000820085E5288000410435A4651699847E2
:1027000004000D0023002B4300D1CFE0002D00DB9F
:10271000E8E0361BAF4134003D005B469C60DD6065
:102720000021595E002900DA89E743465B692200EF
:102730009C462B0048004018C00060448668C7686B
:10274000921BBB41002B00DA79E743466646020044
:102750000094019519810CE07B00DB19DB00F31874
:10276000009801999C68DD68001BA941002904DBE1
:102770001A000023D75E002FEEDA5B461F80534617
:10278000138043469B881BB2002B00DA5DE743466B
:102790001A69EFF3108172B61368002BFCD0BFF3F7
:1027A0005F8F43469B8842461BB29A4601235B4299
:1027B00093801369BFF35F8F00221A6081F3108842
:1027C0005346002B00DA40E743465B699C460823EA
:1027D00043449B4653465F0043465744FF0008224C
:1027E0009A5E67445E46BC68FD68002A19DB3B00C0
:1027F0000094019567469C4604E01E000023F25EAB
:10280000002A0BDB0098019953009B18DB00FB1892
:102810009C68DD68001BA9410029EEDA6346BC46CE
:102820001F005346338000217B5E3A809A46002B7E
:10283000D0DA43469B79002B00D10BE700234246B8
:102840009371434646460821595E08364B1C00D119
:1028500029E747468C46556902E006004B1C17D015
:102860004B005B18DB00E8180A00E95E43881BB2E6
:10287000002BF2DA01235B42DC178360C4606245FF
:10288000ECD031803B89944603803A814B1CE7D1E0
:10289000B8466446E1E66B1C00D0ECE6F9E65B4620
:1028A0005C69200023699847002821D15B46424695
:1028B0001B8813811269EFF3108372B61168002927
:1028C000FCD0BFF35F8F4246594652880A80424689
:1028D000514651801269BFF35F8F0021116083F36D
:1028E0001088ACE6064800F099FA24184D4114E728
:1028F0006568246806E7C0461C2900203C70054036
:10290000004005400126001070B52E4C2569002DB1
:1029100004D00A212C48FFF7FFFD70BD2B4E032188
:10292000300000F071FAE660FFF714FB284B032239
:102930009C46D02322701B061B6801216370254B27
:102940006044A3600F2380002061022063806369DC
:102950004942A18019800231198647311D8358529E
:1029600018315A5275325C399952183201319952E4
:102970001832013199521832013199520835183202
:102980009D5202311832995218320131995218323F
:10299000013199521832013199521832013199524C
:1029A0001832013199520C4B0C49DC600130356210
:1029B000FFF744FB01210320FFF708FB084B1D60D4
:1029C000A7E7C04610110020402900200040054024
:1029D00040000034FFFF10001C29002001260010D9
:1029E000386005400048704710110020F8B51F00FE
:1029F00008AB1B7804001600002B07D100F016FA74
:102A000032003B00121A8B41002B4CDB2269EFF3A2
:102A1000108072B61368002BFCD0BFF35F8F626921
:102A20000223E15E94464B005B18DB0063440029FF
:102A300001DB1A8862802269BFF35F8F0025156071
:102A400080F31088002930DB069A9E60DF601A61EF
:102A5000079A5A615A8801325204520C161C002AF5
:102A60001FD0B0B20A045E8010432669EFF31085D0
:102A700072B63268002AFCD0BFF35F8FA2881A803A
:102A8000A1802369BFF35F8F00221A6085F310884D
:102A9000074923788C4601329A40E36863441A6000
:102AA000F8BD0126DDE70020FAE701204042F7E704
:102AB0003C20000070B5C646010000B50469EFF384
:102AC000108C72B620680028FCD0BFF35F8F022004
:102AD0000D5E48696C0080466419E4004444002D92
:102AE00001DB208848800869BFF35F8F00260660FD
:102AF0008CF31088002D30DBE36063880598013388
:102B000020615B0406985B0CA26060611A1C002BBC
:102B100021D090B22B04628018430A69EFF310862B
:102B200072B61368002BFCD0BFF35F8F8B882380B5
:102B30008D800B69BFF35F8F00221A6086F31088C7
:102B40000B7801329A40CB6805498C4663441A6081
:102B500040BCB04670BD0122DBE701204042F7E7F0
:102B60003C20000010B543890A14934233DD530022
:102B70009B184269DB00944604696344EFF3108CB0
:102B800072B62268002AFCD0BFF35F8F5A8809040E
:102B900094B2090C8A4208D00369BFF35F8F002208
:102BA0001A608CF31088002010BD8022120214439A
:102BB0005C80012302698371BFF35F8F0021116084
:102BC0008CF31088054902788C469340C268012036
:102BD00062441360E8E70020E6E7C0463C200000BE
:102BE00040787047F0B504000D0006267642F717CE
:102BF000C64636196F4100B582B08F4214D811D045
:102C000000F014F932003B00121A8B41002B15DC46
:102C1000002B44D02000290000F012F902B080BC43
:102C2000B846F0BD8642EBD90026002700F0FEF83A
:102C300032003B00121A8B41002BE9DD00F0F6F860
:102C400032003B00121A8B41002B0ADB0023019358
:102C5000144B3200009314483B00FFF72BFF002871
:102C6000D8DBB0460026BC46104A114F7B6A9C4513
:102C700004D8B96A8845CDD99C45CBD11168EFF30A
:102C8000108072B60B68002BFCD0BFF35F8F136807
:102C9000BFF35F8F1E6080F3108820BFE6E7002A35
:102CA000B8D0CBE7D125001010110020402900201A
:102CB0000040054070B504000D0000F0B7F80019A1
:102CC0006941002902DBFFF78DFF70BD012001493A
:102CD0004042F8E7FFFFFF7F70B5060000F0A6F85E
:102CE000FA2204000D00002330000021920002F0BF
:102CF00001F900196941002902DBFFF773FF70BD7C
:102D0000012001494042F8E7FFFFFF7FF0B5CE46C2
:102D1000474680B504000D0083B0EFF30587002F10
:102D20000DD0364A0020536A8B4203D3926A013099
:102D3000A24250D303B0C0BCB946B046F0BD304B40
:102D40009846DB689946434648461E7800F066F888
:102D50000B00494602000436B600715820008E1A56
:102D60002900801A99418F4211DC0ED020BF234ADE
:102D70000020536AAB42DDD3926A0130A242D9D21D
:102D8000E81A421E9041C0B2D4E78642EED900F064
:102D90004DF822002B00121A8B41002B20DB002360
:102DA0000193184B2200009340462B00FFF782FE50
:102DB000011E15DD114B2E005A6A95421CD89B6AE4
:102DC000A34217D34046FFF7CDFE0C4A0020536ABA
:102DD0009E42AFD8D0E7581A421E9041C0B2A9E730
:102DE000064A0020536AAB42A4D3926A0120A24251
:102DF000A0D2C5E79542E5D120BFE3E700400540FA
:102E000010110020D125001010B5024A0248FFF72A
:102E100031F810BDE8A40010782400200300416AB6
:102E20000A00986A596A8A42FAD17047034B596A74
:102E30000A00986A596A9142FAD1704700400540E9
:102E4000064A536A9942FCD807D1044B02E05A6AF9
:102E5000914202D19A6A8242F9D3704700400540FC
:102E600070B516000D0019000400FFF755FB29008E
:102E7000701C02F0A1F80023E681A5816060A360C8
:102E800070BDC04670B502680400EFF3108572B6DD
:102E90001368002BFCD0BFF35F8F20896389E28920
:102EA000C31A01D5561C9B19934208D12368BFF35E
:102EB0005F8F00221A6085F31088002070BD636860
:102EC000A2899C465043604402F098F8002210000A
:102ED0002389E18901339BB29942504141420B4021
:102EE00023812368BFF35F8F1A6085F3108840BF8A
:102EF0000120E3E770B5040008002268EFF31086B4
:102F000072B61368002BFCD0BFF35F8F65892389ED
:102F10005B1B02D5E28901329B18002B07D1226886
:102F2000BFF35F8F136086F31088002070BD002808
:102F300006D0A28963685543591902F05FF8658984
:102F400000231900E2890135ADB2AA4259414A4233
:102F5000154065812268BFF35F8F136086F3108888
:102F600040BF0120E2E7C046F8B5DE464E46574670
:102F70004546E0B58B4605000A991800160000F09A
:102F8000EDFA0A9B6C001F02324B64199C46A400A8
:102F90006444636881469F4200D967602B1FDBB29F
:102FA0009846012B30D9C02380229B01E3181201DF
:102FB0001A60294BAD0059599A4600291BD1226845
:102FC00076017240E0268023164042465B01E318FA
:102FD0001E60012A30D9802380229B01E318120150
:102FE0001A6053464A4667605A51F0BCBB46B24627
:102FF000A946A046F8BD586900F0B0FA431C580035
:10300000C0180338FDD2DAE75B46012BCBD1C023D1
:1030100003229B01E3181A60023AA3681A42FCD00B
:10302000E0232268760156401E4080230A4A5B0155
:103030009246E3181E60AD005A46216851400322B3
:103040000A401A6001225B469A40A3681A42FCD0EB
:10305000C1E7C046008000407C240020F0B5464611
:103060004F46D646C0B51F00344B44009C4624183A
:10307000A4006444636888461600FF2B02D88023AE
:103080005B006360031FDBB29A46012B30D9C0237B
:1030900080229B01E31812011A60294B85005959BF
:1030A000994600291BD1226876017240E0268023D0
:1030B000164052465B01E3181E60012A30D9802376
:1030C00080229B01E31812011A6080235B00636079
:1030D0004B465F51E0BCBA46B146A846F0BD5869C0
:1030E00000F03CFA431C5800C0180338FDD2DAE760
:1030F0004346012BCBD1C02303229B01E3181A6066
:10310000023AA3681A42FCD0E023226876015640B6
:103110001E4080230A4A5B019146E3181E60850029
:1031200042462168514003220A401A600123424668
:103130009340A2681342FCD0C1E7C0460080004023
:103140007C240020014B8000C05870477C24002064
:10315000F8B5040020481D0017000E0000F0FEF92D
:103160000100380000F0FAF9069B29041B031943FB
:103170002368002B1EDB194B194DE21853425A41AC
:1031800080235B019C461203164B62441A60164B67
:103190001A6017002B689F43FBD1144B2660E2187E
:1031A0002123A06013602368002BFCDA0823E16070
:1031B0001360F8BD3F2322681340B342DBD1A368FC
:1031C0001B051B0D8342D6D1EE22E368D2021340C9
:1031D0008B42D0D1EDE7C046001BB7000040FDBFD9
:1031E00008C0004000E0004000F000400430000053
:1031F00010B5140080221B4BD2051A6000281AD08B
:103200000123194A1843194BDA61194A42401A62DC
:10321000596298628022134BD2051A601549164AEA
:103220001160E022D2041A60002C07D18022134BD7
:1032300012061A6010BD0D4BD861EBE763011B1B32
:103240009A008023121912015B049A4200D30C4A9F
:103250000C4B1A60054B5A608022084BD2051A604D
:10326000E8E7C04600B00540D3C007B00080054085
:103270002D3FF84FFCFF01000820014000A0054051
:10328000FFFFFF00F02800208023024A9B000B4331
:10329000D362704700800540142310B501001888E0
:1032A00004331B88984710BD162310B501001888F9
:1032B00002331B88984710BDF8B54746CE4680B507
:1032C0000F1E19D01423994604330400002501264B
:1032D00098464B461888434621681B88984701C486
:1032E000431E9841013540420640AF42F1D13000C3
:1032F000C0BCB946B046F8BD0126F8E7142370B546
:103300000400188804331B880D0005499847030002
:103310000020002C01DB0130A04029009847C04666
:1033200055420000AA23064A1B0113608D235B004F
:10333000D3600449044B19605368002BFCDA7047D2
:103340000040024000B0FA00006002407047C046F2
:1033500010B50148FEF760FD0CA5001070B5074DD3
:10336000074EB54209D20024013E761BB60808CDAF
:10337000984723000134B342F9D170BD109F00106B
:103380004C9F0010054B064A06491A60064A074B37
:103390001A6010000B689843FBD1704700E00040B2
:1033A000BFCDFBFE08C00040FE7F3C0000F00040A7
:1033B000044BDB6C002B03D18022034BD2021A603A
:1033C0007047C046000011504C201150044A054B74
:1033D0001A60054A1368DB018033FBD17047C04691
:1033E000FFFFFF0100F0004008C000404022034BF7
:1033F0009A675A671A67DA667047C04600F001405C
:1034000010B5FEF7C3FD10BD70B5044D044C280087
:10341000C022A16801F0F2FDA56070BD000000208F
:1034200000ED00E0002310B5294C82B0A367FFF740
:1034300079FF0122274B1A60636C012BFCD1032218
:10344000254B1A60224A936B012BFCD10133009368
:103450000121224A22480433FFF77AFE0523012185
:103460000093204A2048FFF773FE00220221042027
:103470001E4BFFF7F3FD0022012105201C4BFFF737
:10348000EDFD0022002107201A4BFFF7E7FD002287
:1034900000210820174BFFF7E1FD8023DB0000939C
:1034A000002200210920134BFFF75EFD0022104B84
:1034B00000210620FFF7D2FD0420FFF743FE0E494E
:1034C00000F04CF801000020FFF7DEFE02B010BD56
:1034D000008000403CB0004030B00040002F6859F0
:1034E00000800240008C864700C00240001BB700ED
:1034F00040597307006CDC0240420F000148042170
:10350000014B184730110020B9320010124A936F56
:103510009B0815D29066D166002905D0FFE7FFE72A
:10352000FFE7516F106F704704B580210906C2177D
:103530005140002800D0C84306F0A2FC002104BD81
:10354000F0B5146E556E576F166FFFF7E3FF1466F4
:10355000556657671667F0BD000000D0114A936F9B
:103560009B0813D210665166002905D0FFE7FFE7DC
:10357000FFE7516F106F704704B5002801D000209D
:10358000C04306F07DFC002104BDC046F0B5146EBA
:10359000556E576F166FFFF7E5FF14665566576750
:1035A0001667F0BD000000D094464A4A926F920818
:1035B000624601D228E0C046F0B5464E346E756EC4
:1035C000776F366F00F020F89446424A14665566CD
:1035D000576716676246F0BD94463E4A926F92085E
:1035E000624601D254E0C046F0B53A4E346E756E74
:1035F000776F366F00F04CF89446364A146655667D
:10360000576716676246F0BD002B24DB11D00029F6
:103610003EDA00B5C943404200D1013100F038F82C
:10362000C943404200D10131DB43524200D1013352
:1036300000BD002AEBD1002801D1002905D00020CF
:10364000C90FC90701D1C043410800B506F000FC0D
:103650000022002300BD00B500290ADBDB435242F3
:1036600000D1013300F014F8C943404200D10131C8
:1036700000BDC943404200D10131DB43524200D179
:10368000013300F005F8DB43524200D1013300BDA5
:10369000002923D1002B18D1002A0CD0BC460D4F95
:1036A00038667A6600210023FFE7FFE7FFE77A6FBD
:1036B000386F67467047002801D00748010000B501
:1036C00006F0C6FB0022002300BD02000B00002014
:1036D00000217047000000D0FFFFFFFF002B00D04B
:1036E000BFE0130C28D1002AE7D080B4114F39660F
:1036F0007A66FFE7FFE730B4040C7B6F396F1B0479
:1037000023433B667A66FFE7FFE7FFE7C04684B2E4
:103710007B6F3D6F1B0423433B667A66FFE7FFE741
:10372000C04600232C042D0C7A6F386F00196941B4
:10373000B0BC7047000000D0F0B594460025140ED0
:1037400001D112020835140F01D112010435940F72
:1037500001D192000235D40F01D152000135D40BB2
:103760000134254F7C66254C3C660E0C93B2FFE776
:10377000FFE7FFE73C6F6643360C7703BE467343B3
:10378000DF0B5B04C01AB941130C7343DB18C91A71
:10379000CE086643360CB64493B273431F0F1B0129
:1037A000C01AB941130C73431F0B1B05C01AB94152
:1037B000860D8F023E436643360C092D24DB520AE8
:1037C0007243801A7703460A6643360C16235B1B46
:1037D000DE40DF40BF1964466643821B70460435F5
:1037E00006330100D940A840C01900D30131A242DC
:1037F00006D20023F0BD0000000000D0FFFFFFFF55
:10380000121B0130F3D3F1E709277F1BFE4064460A
:10381000A2B27243801A00D20139220C7243130CF7
:103820001204821A99410B007046043513370100C7
:10383000F940A840801900D30131002B02D1A242E7
:103840000AD2F0BD013000D30131121BFAD2013B84
:10385000F8D1A24200D2F0BD013000D30131121BD9
:10386000F7E7F0B51C0C00D080E00CB400251C0A72
:1038700004D11B02160E3343120208351C0B04D16F
:103880001B01160F3343120104359C0B04D19B001E
:10389000960F334392000235DC0B02D192185B4144
:1038A00001351C00971864410134464F7C66464C34
:1038B0003C660E0CFFE7FFE7FFE7C0463C6F664340
:1038C000360C7703BE4697B27743C01B00D201394E
:1038D000C01B00D201399FB27743C91BC91B170C0B
:1038E00077437E04FF0B801BB941CE086643360C3C
:1038F0000C2D33DBB644120B1F053A431B0B97B25A
:103900007743C01B00D201399FB27743C91B170C04
:1039100077433E043F0C801BB941860D8F023E4326
:10392000664329277F1BFE400C3D7746AF40BF19F9
:1039300030BCA2B2ABB272437343801A9941220CDD
:103940007243130C1204801A994102000B000137D4
:10395000001BA941F9D2781E0021F0BD0C277F1B66
:10396000FE4077467F0BAF40FF19E0E700245D1C67
:1039700007D0144F7D663966FFE7FFE7FFE7FFE7F3
:103980003C6F95B29EB265436643401BB141150C36
:103990001E0C6543664336042F0C3E432D04401B2A
:1039A000B141994204D202000B0020000021F0BD79
:1039B00001D19042F7D3801A994101349942F2D350
:1039C000F6E70000000000D0FFFFFFFF44464D4631
:1039D00056465F46F0B47047F0BCA046A946B246D2
:1039E000BB46704748404140484018B41B4B5B6899
:1039F000FC46019308BD04DFF740001018B4174BD4
:103A00001B68FC46019308BD00DF0141001094468D
:103A1000134A926F920809D2624618B40F4BDB68C2
:103A2000FC46019308BD0CDFB94300100C4AF0B509
:103A3000146E556E576F166F6246FFF7EEFF084A19
:103A40001466556657671667F0BD18B4034B9B683C
:103A5000FC46019308BD08DF5D420010581B0020A2
:103A6000000000D0FFB550404240504059404B400C
:103A7000594000E0FFB5154F4C00640D03D0BC4227
:103A800004D10C0314D80020090D09055C00640D55
:103A900003D0BC4204D11C030AD800221B0D1B0515
:103AA00001264B4009D44B4003D58B4200D18242C2
:103AB000FFBD9942FCD19042FFBD0B43DB1803438D
:103AC0001343F5D0C9434918FFBD0000FF070000AC
:103AD00000B5FFF7CFFF804100BDC04600B5FFF73E
:103AE000C9FF01D9002000BD012000BD00B5FFF7CE
:103AF000B9FF01D9002000BD012000BD00B5FFF7CE
:103B0000B1FF804100BD012040054A00121804D8D1
:103B10005A00121801D80020704701207047000099
:103B20000021002805D17047C1174840401AFAD03B
:103B3000C90713B5064B1B6898470CBC441CA24030
:103B40001005120B0349091B09051943114310BD48
:103B50003C2900201F04000010B54C00620D80239A
:103B6000D218DB00D21A5B057E2A10DD9E3A13DAEA
:103B7000CC170903490819435242D140640001346B
:103B80001532202A05DAD0400843604310BD0020DA
:103B900010BD0846604310BDC80FC018013810BDE5
:103BA00018B4044B5B6AFC46019308BD24DF9547BB
:103BB00000100000581B002018B4044B1B6EFC467C
:103BC000019308BD60DF474800100000581B00202B
:103BD00018B4044B9B69FC46019308BD18DF85456A
:103BE00000100000581B0020024A034B00B500F0F3
:103BF00061FA00BD182D4454FB2119408A0002D3FC
:103C0000920D092A08DA18B4064BDB6BFC460193C7
:103C100008BD3CDF7B49001000B5FFF7E5FF04BCA1
:103C20009646F0E7581B002018B4044B1B6DFC4669
:103C3000019308BD50DF294D00100000581B0020E3
:103C4000132370B51D78012D19D014DD1E48FFF720
:103C50002BFB06001D48FFF727FB1D4C802231007F
:103C6000200001F0CBF9022D06D01A48FFF714FB13
:103C7000194B186070BD164C184BA364F5E7174B31
:103C8000134C23606360A360E36023616361A361FD
:103C9000E36123626362A362E36223636363A363FA
:103CA000E36323646364A364E36423656365A365DA
:103CB000E36523666366A366E36623676367A367BA
:103CC000E367A364D1E7C0465344000053460000B5
:103CD000581B00204C3300003C290020C540001038
:103CE000254A4B0094465B0D6344F0B504000D007B
:103CF0005A1C24DB5A1C38D03422D21A002A1DDD6B
:103D00003322D31A533A9A181DD401269640310013
:103D100001269E40300024184D41002A1FDB022658
:103D20009640310002229A401000260000234242B1
:103D30008B412C0016401C4030002100F0BDCB0F01
:103D40000020D907FAE720260127F61AF7400126B6
:103D50009E403900300024184D41002ADFDA20222D
:103D60000226D21AD6403100DCE7CB0F034ADB072C
:103D70001A4300201100E1E701FCFFFF0000F03FC3
:103D8000F0B5C6460B000D0049000200040000B566
:103D9000490D30D01D48091827D43426711A884699
:103DA000464610001900002E1CDD202149427718DC
:103DB00025D40126BE40310001274646B7403800D1
:103DC000002B06DA01246442E517A4185D4124188B
:103DD0004D41002342428B4126002C0016401C40DE
:103DE0003000210080BCB846F0BD00200021002B2F
:103DF000F8DA0749F6E7DB0F0020D907F2E72027BA
:103E0000BF1B0126FE403100D6E7C04601FCFFFF84
:103E10000000F0BFF0B557464E464546DE46E0B5D9
:103E200087B002925A009A46530D9946109B4D0056
:103E300004006D0D002B01D000221A609A4A9542B1
:103E40007DD04B46002B7AD0002D00D182E0270098
:103E50000E00914575D0013B0393AB4271DCCB0F53
:103E60000E039846330B9B4680235B039C465B46C0
:103E7000624613431F005346060018036346000BB7
:103E80000343029A0193039B0092AB4200D1AAE044
:103E90004346002B00D1B7E033003C0000275E42D0
:103EA000A7414B46ED1A002D00DCC0E00120019B2C
:103EB00040421911FFF752FB002398464B460393EB
:103EC0005346AB46029004931BE032009A40150023
:103ED0003300524693401C004B464846D917009A7F
:103EE000019B01F007F84346524693404B449846E5
:103EF0005B4626002F009B1A361A8F419B46002BEB
:103F00002BDD5B46DA460C2B01DD0C239A46029A28
:103F1000BB11534351461D22521A13412022013333
:103F20005B10524299468B18CFD5202332005B1A82
:103F3000DA4013003A008A4015001D43C8E7002705
:103F40005A4E3800310007B0F0BCBB46B246A94615
:103F5000A046F0BD00270026F3E7039B9946049B8B
:103F60009A46009B019CBC4200DD83E000D17DE0CD
:103F7000009B019CF61AA741BC4200DD8BE000D1FA
:103F800085E0009B019CF61AA74102239C46E04471
:103F90003200009801993B0092197B418B421ADC58
:103FA00017D000998A425AD05346002B02DA434672
:103FB0005B429846109B002B01D042461A604B464C
:103FC0003B4A30003900D21AFFF7F6FD07000E0019
:103FD000B7E78242E5D9009B019CF61AA74101236D
:103FE0009C46E044E0E7019B9F422FDD0098019949
:103FF000434600184941002B3FD1039B361A8F419D
:10400000994601239846CFE74B46ED1A002D00DD77
:104010004CE7019BBB42BBDC009B019CBC4201D135
:10402000B342B5D8009B019CF61AA74133E00023A8
:104030009846009B019CF6186741002F2FDAF6186E
:10404000674102235B429C46E044A1E7009A019B42
:104050009F4201D19642C9D827000E0071E7019A0C
:104060009342A1D14346DB079ED5B4E7009BB34200
:1040700000D87DE7002FDCDB8AE7039B801BB9417A
:10408000994601235B4206000F0098468CE7009B8F
:10409000B34200D875E701239C46E04478E701234A
:1040A0005B429C46E04473E7FF0700000000F07F9E
:1040B0003304000010B5002482B00094FFF7AAFE7C
:1040C00002B010BD07B5604601880A0A0230DF2A37
:1040D000FAD1C9B2820804D3028840880004104390
:1040E00000E00068014A5050039007BD581B0020B3
:1040F0000FB403BC0CBCF0B50124E407634000E03E
:10410000F0B50C0DCF0F661E3605891B640503D371
:10411000C943404200D30131640D03D0661CF60A46
:1041200007D0E41B00207F00791C89078912803C9E
:1041300024031D0DDF0F6E1E36059B1B6D0503D37B
:10414000DB43524200D301336D0D03D06E1CF60ADF
:1041500007D0ED1B00227F007B1C9B079B12803D3C
:104160002D032F1B661B58D4A446202E46DA203779
:104170001400BC401D00BD40F24033412A4380186A
:104180005941CB0F05D0C943C0430022644250417E
:10419000514162464D0D28D10D0D07D100281FD089
:1041A000241940414941013A0D0DF9D0640006D36C
:1041B000013000D30131002C01D140084000013A08
:1041C0000BD4941CE40A04D112051144DB071944F2
:1041D000F0BDD907204B194300E0D9070020F0BDFE
:1041E0000029DDD1002CDBD1F0BD0132C60740082B
:1041F000CD0728434908002EE1D0D9E73C2E29DA23
:10420000203E40371400BC4000D00124F24014434B
:104210001A00BB401C43D317ACE7AC46202F08DA8A
:1042200020360400B4400D00B540F8403941284321
:10423000A5E73C2F0CDA203F40360400B44000D004
:104240000124F84004430800B1400C43C117EAE7D9
:1042500010001900002494E70000F07FF0B50C0D69
:10426000661E3605891BE60A6405640D02D0651CCE
:10427000ED0A04D0002001210905803C2403A44656
:104280001C0D671E3F05DB1BE70A6405640D02D0A9
:10429000651CED0A04D0002201231B05803C240389
:1042A0007740644497B484B296B27443070C7E435B
:1042B000150C6F4380B26843361802D30120000406
:1042C0003F183004350C00197D41844688B29AB2FB
:1042D00050430C0C62431F0C7C438EB27E439219F8
:1042E00002D301263604A4191604170C36186741A8
:1042F00001BC81B29AB25143040C62431B0C5C4373
:1043000080B25843121802D301200004241810046C
:10431000130C401863412D185E410020474106BC34
:1043200088B293B258430C0C6343120C544389B2C5
:1043300051435B1802D301210904641819041A0CB3
:10434000091862416D1856410020474118BCF90216
:10435000720D1143F0026A0D1043ED020A0D03D1F4
:104360006D1940414941013B124E9B1B7600B342FF
:104370000ED26D0007D301300026714166463543E9
:1043800001D1400840001B05C918E4072144F0BDD5
:104390000BDA013306D1013004D101314F0D01D0C8
:1043A0004908F2E7E1070020F0BD013631050020A1
:1043B000EBE70000FF030000F0B51C0D671E3F0592
:1043C000DB1BE70A6405640D02D0661CF60A04D004
:1043D000002201231B05803C2403D0252D06002646
:1043E000F6432E661E096E66CE0FF619B4464900D6
:1043F0004F0D02D07E1CF60A03D000200021403F62
:104400003F033E1BB600B444013F7F05C91B49086A
:104410002E6F013676089C02950D25437543ED13EA
:104420007543AD1301356D10F603761B0CB4CC0249
:10443000450D2C43A2B2B3B25A43270C7B43350C33
:104440006F43A4B26C431B1902D3012424043F1907
:104450001C041D0CA4187D4124196D41009A91B2D1
:10446000ACB26143170C7C432B0C5F4392B25A43AE
:10447000A41802D301221204BF182204230C5218DC
:104480007B41019C6C431B19520ED9010A43440124
:10449000A01A81B2B2B2514303145A43360C73438B
:1044A00087B27743D617D21900277E4136049B196D
:1044B0001704160C7F185E417316ED18F3010026E1
:1044C00080337541A90F06D16400690AE8055B0ACB
:1044D000184309D22FE00422944480337541A90A7D
:1044E000A8059B0A184326D3404149412404009A59
:1044F000019B0D005543641B4343E41A95B286B2F9
:104500007543170C7E43030C5F4392B25A43B618AF
:1045100002D301221204BF183204330C52197B411A
:1045200052429C41002C02D40022013051414008EB
:10453000CA071043490802B06246D7079210084BD9
:10454000D218084B9A4203D212058918C919F0BD36
:104550000020002A01DC3900F0BD01331905F5E720
:10456000FD030000FE07000007DA002107E0C90F85
:10457000C907520D03D0C91201E04C4909050020BA
:104580007047C0464A00F2D2520D013A484B9A4257
:10459000EAD2F0B51405091B520801D300184941AD
:1045A0009B08D2181205944640A44A0CA25C0B0941
:1045B000534353431B1353435B131202D21A13008A
:1045C0005B435B0B4C086343DB135343DB15013345
:1045D0005B10D21A130CD21A13005B438902840DAC
:1045E00021438DB29EB275430F0C7E431B0C5F437B
:1045F0008CB25C43361902D3012424043F193404DD
:10460000330C64197B419D01A40E2C432034A5B2C8
:104610005543241454432D0C6419A411D203121BC6
:1046200095B28EB27543170C7E430C0C674393B260
:104630006343F61802D301231B04FF183304340C20
:104640005B197C41DB186441DB18002363419EB297
:1046500076439DB21F0C7D437F436C04ED0BA41980
:104660007D4106028F08361BAF417D07F6086E417B
:10467000B4B295B26C4337147D43120C5743B6B2B3
:104680005643EA17AD19002672411204BF182E04D2
:104690002A0C36197A410832521117D29D0A9C050C
:1046A000D117101969416144F0BD0000FF070000F7
:1046B000FE070000F8EBDFD6CDC5BEB8B2ADA8A4AA
:1046C000A09C9995928F8D8A8885838152415D0A3D
:1046D000DC05D11714194D412B006343A6B2764374
:1046E000A2B2270C7A437F435104D20B89197A4135
:1046F000D218D21880054942904102D400230134D7
:104700005D4160086908ED0728436144F0BDC0467B
:10471000624618CA94465A46002A20DB04E06246E4
:1047200018CA944600291ADAC01861415B463B4119
:104730005C46B4405246FA40224344464D466241EC
:104740006B41904699462B46B3403D41FC401C438B
:1047500052465B46A241AB4192469B467047C01A07
:10476000A1414B463B414C46B4404246FA402243AD
:1047700054465D4662416B4192469B462B46B34090
:104780003D41FC401C4342464B46A241AB41904652
:1047900099467047002200B5203200F010F808005A
:1047A00000BD002200B500F00CF8CA179A4200D1F3
:1047B00000BDD8430121C907414000BD00220B15AF
:1047C0000AD410B5944600F079F81414013400DAD4
:1047D0000021CB17144C2047002000217047624471
:1047E000343A0CD40C2A07DA04009140904052422B
:1047F0002032D440214310BDD843D94310BD2032CC
:1048000007D40C469440524220321141D0402043FC
:1048100010BD0800C917203203D452422032104183
:1048200010BD1800190010BDDF47001000210A005C
:10483000002104E000210A00C11704E00022002347
:1048400006E0C0460022CB1758405940C01A994193
:1048500030B5184CA21A002903D1010010D0002055
:10486000203A4C1512D104D2013A001849414C0D9E
:10487000FAD3114CA24204D212058918DB07C918D9
:1048800030BDD243520D00200021F5E703D4013A98
:1048900000184941FBD50B324405C00A4D05284399
:1048A000C90A640003D0002460416141E1E7E0D31C
:1048B0004408F8E732040000FE0700000A0DCC0FA0
:1048C000531E1B05C91A520503D3C943404200D3E6
:1048D0000131520D03D0531CDB0A07D0121B0020FC
:1048E0006400611C89078912803A1203014BD21AB5
:1048F00070470000FF030000023225D40C2A1CDAA6
:104900001125AD1A0B002B41083207350600EE4089
:10491000904091403143F0CC63431A1500235A4133
:10492000554356435743BF02F41276057619674143
:10493000ED177F19801BB94170470C220020C91761
:10494000490001310905DBE70902030E19430002A2
:104950005342203208D40C0019419440D8402043DF
:1049600000225041514170470800C917203B2032B6
:10497000F1D50020002100227047F0B5FFF726F89E
:1049800000F00EF800F030F806E0F0B5FFF71EF882
:1049900000F006F800F046F8FFF71EF8F0BD000042
:1049A00000B5FFF78BFF30A4FFF7A6FF00242C4DC6
:1049B0002C4ED20702D3F6436D426641520004D218
:1049C000A246A346A846B14603E0A046A146AA4691
:1049D000B3466EA4A44601271F26FFF7A0FE0137A9
:1049E000013E212FF9D100BD594684B28DB26C43EE
:1049F000061475430B145E4382B25A43AD18EA178E
:104A000000D7D2431204B6182A042B0C1219734192
:104A1000404649469D009B17920F2A439041994179
:104A20003E2210E7494684B28DB26C4306147543AA
:104A30000B145E4382B25A43AD18EA1700D7D24333
:104A40001204B6182A042B0C121973415046594609
:104A50009D009B17920F2A43504159413E22F2E696
:104A6000BB4DF09DC556F6367D5100001A6114000D
:104A700085880A00FB211900F0B5FEF7A7FF404D1D
:104A80000C002C4001D0AC4202D1090D09050020D8
:104A90001C002C4001D0AC4202D11B0D1B05002292
:104AA0000026ED02002B04D502266B40694000D49D
:104AB00076424F1904D599420CDD0136694003E076
:104AC000BB4207DA013E6B40070010003A000F00BE
:104AD00019003B0040B4002A0FD1002B0AD05C0023
:104AE0006415013409D14C006415013402D1013937
:104AF000013B02E0002000212EE0FFF75DFC3E229A
:104B0000FFF750FE82468B4600200021804601229E
:104B1000920791461DA4A44601271F26FFF7F8FD22
:104B20000137013E212FF9D14A4653460C3A012460
:104B30006407002752081B0005D4934100197941EE
:104B40006408F7D104E05341001BB9416408F1D176
:104B5000CE0749104008304340BC002E0AD0094C13
:104B6000094D01D5E443ED43F60701D10019694130
:104B7000001969413D22FFF766FEFEF72DFFF0BDEB
:104B80000000F07F8D305A88A8F64332694FBB6130
:104B90000567AC1DB16E4096FCBAAD0F72DB0BAB76
:104BA000A66EF50739BD9FE576ABFE034B6297BA5B
:104BB0005BD5FF01D694DBDDAAFAFF005DEAEE5675
:104BC00055FF7F006E77B7AAEAFF3F00BCBB555583
:104BD000FDFF1F00DEADAAAAFFFF0F006F5555F5C0
:104BE000FFFF0700ABAAAAFEFFFF03005555D5FF44
:104BF000FFFF0100ABAAFAFFFFFF00005555FFFFC2
:104C0000FF7F0000ABEAFFFFFF3F000055FDFFFF05
:104C1000FF1F0000ABFFFFFFFF0F0000F5FFFFFFCE
:104C2000FF070000FFFFFFFFFF0300000000000080
:104C30000002000000000000000100000000000071
:104C400080000000000000004000000000000000A4
:104C50002000000000000000100000000000000024
:104C60000800000000000000040000000000000038
:104C700002000000000000000100000000000080B1
:104C8000000000000000004000000000F0B5FFF749
:104C900015FE54A4FFF730FE002904DA204C214D04
:104CA00000196941013A04B4012752A600220123E8
:104CB0009B0730CEB446001BA9410BD47E42203660
:104CC0001D003D411C00B4401600FE4034436241CB
:104CD0006B4101E00019694166460137212FE8D197
:104CE00085B29EB2754307147E43190C4F4384B2BC
:104CF0004C43F11736190024614109047F1834042C
:104D0000310C64197941A40F880020438917801859
:104D1000594104BC52423E32FFF795FDF0BD000000
:104D20006BDE73F4FD855C2CF0B54F0050D27F151F
:104D30004ED001374FD0FFF7C1FD04B44902C20D78
:104D40001143400201272BA6B446002200237E42D5
:104D500020360D003D410C00B4400600FE403443B7
:104D600044414D41AE0F05D120002900664630CEAA
:104D7000121BAB410824A4440137212FE7D189003D
:104D8000891012184B4180BC17A413CC013778430B
:104D900079437C434F05C912CD17C0196941A70259
:104DA000A415CD17C9196C41DD17801859416C4104
:104DB0003E22CD17AC4208D000090E073043090946
:104DC000260731432411043AF3E7FFF73CFDF0BD19
:104DD00002490020F0BD02490020F0BD0000F0FFB4
:104DE0000000F07FAAB800006BDE1300A3EF0F00F5
:104DF00021170B00F34B98BFEC23F319D6104DCDC0
:104E0000E3FB470E7AB9BC8ADBC18907CC542C027C
:104E10001846E103053083E7B029F8011E1FE0873B
:104E20004505FE00249E41ACA9807F0081176245A4
:104E300015E03F00E610ABA902F81F008858455561
:104E400000FE0F00C4AAA90A80FF070056455501BD
:104E5000E0FF0300ABA92A00F8FF0100455505005B
:104E6000FEFF0000AAAA0080FF7F0000551500E0A9
:104E7000FF3F0000AB0200F8FF1F0000550000FEDE
:104E8000FF0F00000B0080FFFF0700000100E0FFA4
:104E9000FF0300000000F8FFFF0100000000FEFF1C
:104EA000FF0000000080FFFF7F00000000E0FFFF28
:104EB0003F00000000F8FFFF1F00000000FEFFFFA2
:104EC0000F00000080FFFFFF07000000E0FFFFFF72
:104ED00003000000F8FFFFFF01000000FEFFFFFFDE
:104EE0000000000000000080000000000000004002
:104EF0000000000051434343C9188C46110C83B293
:104F00004B4310B4040C614392B280B250436243ED
:104F10001C041B0C001910BC59411304120CC018BE
:104F20005141614470470000132310B512481C78AA
:104F3000FEF7BAF90100012C0AD003DD80220F48E8
:104F400000F05CF80E48FEF7A7F90E4B186010BD94
:104F50000A4C5422200000F051F80B4B6365A36506
:104F6000E36523666366A366E36623676367A367F7
:104F7000E3672362E361E5E753460000581C002025
:104F80004C3300003C2900208D4F001007B56046CF
:104F900001880A0A0230DF2AFAD1C9B2820804D392
:104FA000028840880004104300E00068014A505025
:104FB000039007BD581C002070B505000C0004F0DC
:104FC000C5FA6C43002804D0034B04199C4200D856
:104FD00070BD0248FCF720FF0000042018A5001057
:104FE00001480421014B184740110020B93200103C
:104FF000014B1B681847000040110020014B5B6803
:1050000018470000401100207047C046F8B55746C9
:105010004E464546DE46E0B599460A9B07009A464D
:105020000D9B8846934615000B9E9B0710D10C9B49
:105030009E420DD29D1B14000E005D4422004B4683
:10504000013431002020B847A542F7D1B0460B9E6D
:10505000002E27D0444675195346AA1B013E985D81
:1050600021004B46B847002EF6D123002C0098466D
:105070000D9B9B070FD55B46E51A0C9BAB420AD9EB
:105080004646984622004B46310020200135B8475D
:105090000134A845F6D82000F0BCBB46B246A9466C
:1050A000A046F8BD2C00E3E7F0B54F464646D6468D
:1050B000C0B584B098460EAB1B78129F99469446B3
:1050C0000D9C109B119EBA0725D4002E4BD19C42FB
:1050D00000D3BFE001223A4092461F2C00D9B8E02D
:1050E0000C9A551E302201E0202C03D001342A55A1
:1050F000A342F9D85246002A0DD0A6420BD9202C43
:1051000044D00C9A551E302201E0202C3ED00134B0
:105110002A55B442F9D1FA064DD57A053FD4002C70
:1051200039D10F9B102B00D179E00F9B022B00D1BE
:105130008AE030230C9A012413704B46002B3FD099
:105140002D230C9A135501340C9B62460093039750
:10515000434602960194FFF759FF04B0E0BCBA46FB
:10516000B146A846F0BD012215003D40AA463A428C
:105170002FD04A46002A02D10C323A4200D0013EDA
:105180009C42BAD21F2CABD9202E27D92024FA0654
:10519000DAD57A0503D4A3422DD0A6422BD00F9B9B
:1051A000102B32D0022B20D0202CCDD030220C9BC3
:1051B0001B191A700134202CC6D04B46002BBFD1CE
:1051C0007B070DD43B07BFD520230C9A1355013420
:1051D000BAE79C429FD21F2C00D881E720249AE78F
:1051E0002B230C9A13550134AEE7202CACD00C9B2A
:1051F0001B1901343AE0631E012C92D00F9A102A39
:105200002AD0022A2FD01C00D0E7BB060ED4202CB7
:105210009AD00C9B1A19013478231370C4E7BB068B
:105220000DD478230C9A01241370BFE7202C00D1F1
:105230008AE758220C9B1B191A700134B4E75823D3
:105240000C9A01241370B1E70C9A60330124137097
:10525000ACE7202400265EE7023CBA06E9D40C9AAB
:1052600012191C00D8E70C9A9246534462221A7015
:105270009AE7C04610B5002800D110BD01F00CFB24
:10528000FBE7C0460B0010B5002802D049681B6838
:10529000984710BDF0B5DE4657464E464546E0B548
:1052A0009BB09B46249B89469846259B0B900C926D
:1052B0004046424619009A46FEF725FC002800D0D9
:1052C000D8E0012240465146774B5242FEF716FC89
:1052D000002800D0CEE0012240465146734B524296
:1052E000FEF7F6FB002800D0C4E000220023404671
:1052F0005146FEF7EDFB002800D0B9E14246534687
:105300000A9209938023289ADB001A400E92289A69
:105310001A4201D1062326930A9A099B16001343C9
:1053200000D0C7E0289B002500261B0500D49BE188
:1053300000230D93269A0D9B9A4200DC9FE1D01A20
:10534000431E26938023289ADB001A43002300275C
:1053500028920D93279B0024BB4200D9DC1B02231B
:10536000289A1A400E92289A134203D07B427B411E
:105370005B421C400D9B002B07D00A9809992A001C
:105380003300FEF744FB0A900991002200234046B7
:105390005146FEF79DFB002805D08020000684467C
:1053A000099961440991289A414B0B9D134004933C
:1053B000269B0A9A0293099B039400920193494603
:1053C0005B4628000C9A00F08BF90400002F62D095
:1053D000289B220098061F23C0179843631C9846F9
:1053E00049465B466530A8470D9B0025DA179C1897
:1053F000DB0F9A465440013F01E0202D13D00AAA4A
:1054000094461F23200063440A2101355E19FEF7EC
:10541000A5F83031317020000A21FEF79FF82600F0
:105420000400092EE9D805230693002304930A33C8
:105430000393534605970B9F029312AB009342468A
:105440005B46494638000195FFF72EFE0E9B04008F
:10545000002B20D00C9BC51A279BAB421BD91E00EA
:1054600022005B46494620200135B8470134AE4250
:10547000F6D810E0289B42460493279B49460393A5
:10548000269B0B9802935346009201935B460C9A1D
:1054900000F026F9040020001BB0F0BCBB46B24669
:1054A000A946A046F0BDC046FFFFEF7FFFFFEFFF1C
:1054B000FFF7FFFF734B099F9C467800400D604447
:1054C000FEF732FB704A714BFEF7BFFA704A714B20
:1054D000FEF794FA3B03704A1B0B1A4304000D00BD
:1054E000300011006D4B0022FEF77FFA6C4A6D4BC5
:1054F000FEF7ABFA02000B0020002900FEF77EFA4F
:10550000FEF72AFB0D90FEF70FFB674A674B04007E
:105510000D00FEF79AFA0022654BFEF76FFAFEF7D0
:105520001BFB644A0600644B20002900FEF78DFA3D
:10553000040030000D000F96FEF7F6FA5F4A604B4C
:10554000FEF783FA02000B0020002900FEF74DFA57
:1055500002000B0006000F00FEF777FA320004008D
:105560000D003B0030003900FEF748FA0022109091
:105570001191544B20002900FEF749FA0022524BAA
:10558000FEF73CFA02000B0020002900FEF73FFA6C
:1055900000224E4BFEF732FA02000B0020002900D9
:1055A000FEF735FA0D008021040032003B00002098
:1055B000C905FEF71AFA02000B0020002900FEF7C9
:1055C0001DFA02000B0010981199FEF720FA002234
:1055D000314BFEF713FA3E4B0F9C9C46644400226D
:1055E0002305FEF732FA05000E0002000B000A98B0
:1055F0000999FEF76DFA00280AD00D9B2800013B9F
:1056000031000D930022304BFEF701FA05000E0029
:10561000C6270D992B0063318F42BF4128997F42E5
:105620000437090500D495E6334300D182E6099C8E
:10563000284A2100284B0A98FEF758FA002808D07B
:1056400000222100254B0A98FEF742FA002800D0DC
:1056500070E6269B002B00D17CE60E9B5A1E9341E0
:10566000269AD31A269375E6002304270D9371E634
:1056700043460A9380231B065344099342E60023C2
:1056800026935FE601FCFFFFFB799F501344D33F55
:10569000B3C8608B288AC63F0000F03F0000F83F87
:1056A00061436F63A787D23F71A379094F930A4083
:1056B0000000E03F1655B5BBB16B0240EF39FAFE72
:1056C000422EE63F00002C4000002440000018401D
:1056D000FF0300002D431CEBE2361A3F80842E416D
:1056E000F0B54E46DE4657464546E0B597B099467A
:1056F000209E219F229B8346984607910C923B0057
:10570000320030003900FEF7FEF9002800D0A9E190
:10571000012230003900CA4B5242FEF7D9F9002865
:1057200000D0E1E0012230003900C64B5242FEF7C2
:10573000E5F9002800D0B7E0002230003900C24B64
:10574000FEF7DCF9002800D099E000223000390093
:10575000BE4BFEF7BDF9002800D090E000220023E8
:1057600030003900FEF7B4F9002800D0B1E0002382
:105770000D93249B5B0501D40623984608AB9C46F9
:105780001722002430234146624404E001341355BB
:105790000139202C01D00929F8D888463000390079
:1057A000FEF7DAF94346DA00A94B05009B181A68A0
:1057B0005B6808920993FEF7B7F902000B0030000E
:1057C0003900FEF712F9089A099BFEF73EF90A9094
:1057D0000B91FEF7E5F98246FEF7A2F902000B00F5
:1057E0000A980B99FEF701F900229A4B0A900B9147
:1057F000FEF784F9002800D1C0E001239C46E24472
:105800005046FEF78DF902000B0008980999FEF743
:1058100065F9002802D000239A4601354346002B43
:105820006AD008AB17269C4608956644554614E096
:1058300001235B4243440A2128009A46FDF78EFE6D
:10584000013430313719397028000A21FDF786FEFE
:10585000092D00D8D0E0D0460500202CE8D10EABB1
:1058600098460323249A1340012B00D196E020236D
:10587000249A01930392239A434602921EE0249BAA
:1058800058460493239B00960197039343460C9A32
:10589000029307994B46FFF7FDFC17B0F0BCBB46DF
:1058A000B246A946A046F0BD249B5B070ED4032256
:1058B000694B2499019203912399029100935846D0
:1058C0004B460C9A0799FFF7A1FBE6E70422634BCE
:1058D000EFE73B00320000200021FEF786F80123AD
:1058E00006000F000D9344E7249B0393239B029330
:1058F000042301935A4BE1E72800FEF715F9020053
:105900000B0030003900FEF770F8524B0022060001
:105910000F00FEF7DDF80EAB984600280AD10022F2
:10592000300039004B4BFEF7E9F8002802D1EB07B5
:1059300000D50135202C94D008AA944617232800BE
:1059400063440A2101341E19FDF7E0FD30312800BF
:1059500031700A21FDF7DAFD051EEBD10323249AED
:105960001340012B1BD0202C00D180E70D9B002B76
:1059700035D02D224146631C0A5579E700220A984A
:105980000B99344BFEF7A4F8002800D046E75346A5
:10599000002B51D101239C46E2443FE72024239B66
:1059A000002BE0D00D9B002B03D1249A0C33134223
:1059B00002D0239B013B2393239BA342D3D908AB63
:1059C0009C46172230236244202C00D14FE72399B4
:1059D000013413558C42C6D0202CF8D147E7249BC4
:1059E0005B0724D4249A2300120700D440E7202226
:1059F000414601330A553BE75746089D202C00D10C
:105A00002DE7220030214046002F09D00132B15449
:105A1000202A00D123E7D3431B191B18002BF5D1F3
:105A20000EAB98462E234146541C8B5482E72B2202
:105A30004146631C0A551BE7DB0700D4EEE6A9E7E5
:105A4000FFFFEFFFFFFFEF7F65CDCD4165CDCDC1FE
:105A5000C8A700100000E03FCCA50010D0A50010A2
:105A6000DCA50010249B0393239B02930323019343
:105A7000004B23E7D8A50010F0B5DE464E4657464A
:105A80004546E0B59FB01C00289B91460993C94A42
:105A9000C94B8B4608901A60002900D118E20023F8
:105AA00020789A46002800D11AE226001D005C46A4
:105AB0000AE02A006F1C4B46089D2100A8473D00C4
:105AC00001363078002870D02528F2D110239B466B
:105AD000083B9A46043B9846023B00219C46721CB8
